{
  "contractName": "RarityCaller",
  "abi": [
    {
      "anonymous": false,
      "inputs": [
        {
          "indexed": true,
          "internalType": "address",
          "name": "previousOwner",
          "type": "address"
        },
        {
          "indexed": true,
          "internalType": "address",
          "name": "newOwner",
          "type": "address"
        }
      ],
      "name": "OwnershipTransferred",
      "type": "event"
    },
    {
      "inputs": [],
      "name": "feeMultiplier",
      "outputs": [
        {
          "internalType": "uint256",
          "name": "",
          "type": "uint256"
        }
      ],
      "stateMutability": "view",
      "type": "function",
      "constant": true
    },
    {
      "inputs": [
        {
          "internalType": "address",
          "name": "",
          "type": "address"
        }
      ],
      "name": "fees",
      "outputs": [
        {
          "internalType": "uint256",
          "name": "",
          "type": "uint256"
        }
      ],
      "stateMutability": "view",
      "type": "function",
      "constant": true
    },
    {
      "inputs": [],
      "name": "owner",
      "outputs": [
        {
          "internalType": "address",
          "name": "",
          "type": "address"
        }
      ],
      "stateMutability": "view",
      "type": "function",
      "constant": true
    },
    {
      "inputs": [],
      "name": "renounceOwnership",
      "outputs": [],
      "stateMutability": "nonpayable",
      "type": "function"
    },
    {
      "inputs": [
        {
          "internalType": "address",
          "name": "newOwner",
          "type": "address"
        }
      ],
      "name": "transferOwnership",
      "outputs": [],
      "stateMutability": "nonpayable",
      "type": "function"
    },
    {
      "inputs": [
        {
          "internalType": "uint256[]",
          "name": "summoners",
          "type": "uint256[]"
        }
      ],
      "name": "rarityAdventureAll",
      "outputs": [],
      "stateMutability": "payable",
      "type": "function",
      "payable": true
    },
    {
      "inputs": [
        {
          "internalType": "uint256[]",
          "name": "summoners",
          "type": "uint256[]"
        }
      ],
      "name": "rarityLevelupAll",
      "outputs": [],
      "stateMutability": "payable",
      "type": "function",
      "payable": true
    },
    {
      "inputs": [
        {
          "internalType": "address",
          "name": "to",
          "type": "address"
        }
      ],
      "name": "withdrawFees",
      "outputs": [],
      "stateMutability": "nonpayable",
      "type": "function"
    },
    {
      "inputs": [
        {
          "internalType": "uint256",
          "name": "multiplier",
          "type": "uint256"
        }
      ],
      "name": "setFeeMultiplier",
      "outputs": [],
      "stateMutability": "nonpayable",
      "type": "function"
    }
  ],
  "bytecode": "0x608060405273ce761d788df608bd21bdd59d6f4b54b2e27f25bb600160006101000a81548173ffffffffffffffffffffffffffffffffffffffff021916908373ffffffffffffffffffffffffffffffffffffffff160217905550601e60035534801561006a57600080fd5b5061008761007c61008c60201b60201c565b61009460201b60201c565b610158565b600033905090565b60008060009054906101000a900473ffffffffffffffffffffffffffffffffffffffff169050816000806101000a81548173ffffffffffffffffffffffffffffffffffffffff021916908373ffffffffffffffffffffffffffffffffffffffff1602179055508173ffffffffffffffffffffffffffffffffffffffff168173ffffffffffffffffffffffffffffffffffffffff167f8be0079c531659141344cd1fd0a4f28419497f9722a3daafe3b4186f6b6457e060405160405180910390a35050565b61116c806101676000396000f3fe6080604052600436106100865760003560e01c8063853ec87e11610059578063853ec87e146101105780638da5cb5b1461012c578063e5a70ef714610157578063f2fde38b14610182578063faaebd21146101ab57610086565b8063164e68de1461008b5780631e6a311d146100b45780633a38aeb1146100dd578063715018a6146100f9575b600080fd5b34801561009757600080fd5b506100b260048036038101906100ad9190610b7a565b6101e8565b005b3480156100c057600080fd5b506100db60048036038101906100d69190610bf4565b6103bb565b005b6100f760048036038101906100f29190610ba7565b610485565b005b34801561010557600080fd5b5061010e610676565b005b61012a60048036038101906101259190610ba7565b6106fe565b005b34801561013857600080fd5b506101416108ef565b60405161014e9190610cee565b60405180910390f35b34801561016357600080fd5b5061016c610918565b6040516101799190610da9565b60405180910390f35b34801561018e57600080fd5b506101a960048036038101906101a49190610b7a565b61091e565b005b3480156101b757600080fd5b506101d260048036038101906101cd9190610b7a565b610a16565b6040516101df9190610da9565b60405180910390f35b6101f0610a2e565b73ffffffffffffffffffffffffffffffffffffffff1661020e6108ef565b73ffffffffffffffffffffffffffffffffffffffff1614610264576040517f08c379a000000000000000000000000000000000000000000000000000000000815260040161025b90610d49565b60405180910390fd5b6000600260003073ffffffffffffffffffffffffffffffffffffffff1673ffffffffffffffffffffffffffffffffffffffff1681526020019081526020016000205410156102e7576040517f08c379a00000000000000000000000000000000000000000000000000000000081526004016102de90610d69565b60405180910390fd5b6000600260003073ffffffffffffffffffffffffffffffffffffffff1673ffffffffffffffffffffffffffffffffffffffff1681526020019081526020016000205490506000600260003073ffffffffffffffffffffffffffffffffffffffff1673ffffffffffffffffffffffffffffffffffffffff168152602001908152602001600020819055508173ffffffffffffffffffffffffffffffffffffffff166108fc829081150290604051600060405180830381858888f193505050501580156103b6573d6000803e3d6000fd5b505050565b6103c3610a2e565b73ffffffffffffffffffffffffffffffffffffffff166103e16108ef565b73ffffffffffffffffffffffffffffffffffffffff1614610437576040517f08c379a000000000000000000000000000000000000000000000000000000000815260040161042e90610d49565b60405180910390fd5b606481111561047b576040517f08c379a000000000000000000000000000000000000000000000000000000000815260040161047290610d89565b60405180910390fd5b8060038190555050565b60005a905060005b8383905081101561055157600160009054906101000a900473ffffffffffffffffffffffffffffffffffffffff1673ffffffffffffffffffffffffffffffffffffffff1663b00b52f18585848181106104e9576104e8610fcd565b5b905060200201356040518263ffffffff1660e01b815260040161050c9190610da9565b600060405180830381600087803b15801561052657600080fd5b505af115801561053a573d6000803e3d6000fd5b50505050808061054990610f26565b91505061048d565b50600060646003543a5a856105669190610eb6565b6105709190610e5c565b61057a9190610e5c565b6105849190610e2b565b90508034116105c8576040517f08c379a00000000000000000000000000000000000000000000000000000000081526004016105bf90610d29565b60405180910390fd5b80600260003073ffffffffffffffffffffffffffffffffffffffff1673ffffffffffffffffffffffffffffffffffffffff16815260200190815260200160002060008282546106179190610dd5565b925050819055503373ffffffffffffffffffffffffffffffffffffffff166108fc82346106449190610eb6565b9081150290604051600060405180830381858888f1935050505015801561066f573d6000803e3d6000fd5b5050505050565b61067e610a2e565b73ffffffffffffffffffffffffffffffffffffffff1661069c6108ef565b73ffffffffffffffffffffffffffffffffffffffff16146106f2576040517f08c379a00000000000000000000000000000000000000000000000000000000081526004016106e990610d49565b60405180910390fd5b6106fc6000610a36565b565b60005a905060005b838390508110156107ca57600160009054906101000a900473ffffffffffffffffffffffffffffffffffffffff1673ffffffffffffffffffffffffffffffffffffffff16639024944885858481811061076257610761610fcd565b5b905060200201356040518263ffffffff1660e01b81526004016107859190610da9565b600060405180830381600087803b15801561079f57600080fd5b505af11580156107b3573d6000803e3d6000fd5b5050505080806107c290610f26565b915050610706565b50600060646003543a5a856107df9190610eb6565b6107e99190610e5c565b6107f39190610e5c565b6107fd9190610e2b565b9050803411610841576040517f08c379a000000000000000000000000000000000000000000000000000000000815260040161083890610d29565b60405180910390fd5b80600260003073ffffffffffffffffffffffffffffffffffffffff1673ffffffffffffffffffffffffffffffffffffffff16815260200190815260200160002060008282546108909190610dd5565b925050819055503373ffffffffffffffffffffffffffffffffffffffff166108fc82346108bd9190610eb6565b9081150290604051600060405180830381858888f193505050501580156108e8573d6000803e3d6000fd5b5050505050565b60008060009054906101000a900473ffffffffffffffffffffffffffffffffffffffff16905090565b60035481565b610926610a2e565b73ffffffffffffffffffffffffffffffffffffffff166109446108ef565b73ffffffffffffffffffffffffffffffffffffffff161461099a576040517f08c379a000000000000000000000000000000000000000000000000000000000815260040161099190610d49565b60405180910390fd5b600073ffffffffffffffffffffffffffffffffffffffff168173ffffffffffffffffffffffffffffffffffffffff161415610a0a576040517f08c379a0000000000000000000000000000000000000000000000000000000008152600401610a0190610d09565b60405180910390fd5b610a1381610a36565b50565b60026020528060005260406000206000915090505481565b600033905090565b60008060009054906101000a900473ffffffffffffffffffffffffffffffffffffffff169050816000806101000a81548173ffffffffffffffffffffffffffffffffffffffff021916908373ffffffffffffffffffffffffffffffffffffffff1602179055508173ffffffffffffffffffffffffffffffffffffffff168173ffffffffffffffffffffffffffffffffffffffff167f8be0079c531659141344cd1fd0a4f28419497f9722a3daafe3b4186f6b6457e060405160405180910390a35050565b600081359050610b0981611108565b92915050565b60008083601f840112610b2557610b24611001565b5b8235905067ffffffffffffffff811115610b4257610b41610ffc565b5b602083019150836020820283011115610b5e57610b5d611006565b5b9250929050565b600081359050610b748161111f565b92915050565b600060208284031215610b9057610b8f611010565b5b6000610b9e84828501610afa565b91505092915050565b60008060208385031215610bbe57610bbd611010565b5b600083013567ffffffffffffffff811115610bdc57610bdb61100b565b5b610be885828601610b0f565b92509250509250929050565b600060208284031215610c0a57610c09611010565b5b6000610c1884828501610b65565b91505092915050565b610c2a81610eea565b82525050565b6000610c3d602683610dc4565b9150610c4882611015565b604082019050919050565b6000610c60601083610dc4565b9150610c6b82611064565b602082019050919050565b6000610c83602083610dc4565b9150610c8e8261108d565b602082019050919050565b6000610ca6600883610dc4565b9150610cb1826110b6565b602082019050919050565b6000610cc9601383610dc4565b9150610cd4826110df565b602082019050919050565b610ce881610f1c565b82525050565b6000602082019050610d036000830184610c21565b92915050565b60006020820190508181036000830152610d2281610c30565b9050919050565b60006020820190508181036000830152610d4281610c53565b9050919050565b60006020820190508181036000830152610d6281610c76565b9050919050565b60006020820190508181036000830152610d8281610c99565b9050919050565b60006020820190508181036000830152610da281610cbc565b9050919050565b6000602082019050610dbe6000830184610cdf565b92915050565b600082825260208201905092915050565b6000610de082610f1c565b9150610deb83610f1c565b9250827fffffffffffffffffffffffffffffffffffffffffffffffffffffffffffffffff03821115610e2057610e1f610f6f565b5b828201905092915050565b6000610e3682610f1c565b9150610e4183610f1c565b925082610e5157610e50610f9e565b5b828204905092915050565b6000610e6782610f1c565b9150610e7283610f1c565b9250817fffffffffffffffffffffffffffffffffffffffffffffffffffffffffffffffff0483118215151615610eab57610eaa610f6f565b5b828202905092915050565b6000610ec182610f1c565b9150610ecc83610f1c565b925082821015610edf57610ede610f6f565b5b828203905092915050565b6000610ef582610efc565b9050919050565b600073ffffffffffffffffffffffffffffffffffffffff82169050919050565b6000819050919050565b6000610f3182610f1c565b91507fffffffffffffffffffffffffffffffffffffffffffffffffffffffffffffffff821415610f6457610f63610f6f565b5b600182019050919050565b7f4e487b7100000000000000000000000000000000000000000000000000000000600052601160045260246000fd5b7f4e487b7100000000000000000000000000000000000000000000000000000000600052601260045260246000fd5b7f4e487b7100000000000000000000000000000000000000000000000000000000600052603260045260246000fd5b600080fd5b600080fd5b600080fd5b600080fd5b600080fd5b7f4f776e61626c653a206e6577206f776e657220697320746865207a65726f206160008201527f6464726573730000000000000000000000000000000000000000000000000000602082015250565b7f494e53554646494349454e545f46454500000000000000000000000000000000600082015250565b7f4f776e61626c653a2063616c6c6572206973206e6f7420746865206f776e6572600082015250565b7f5a45524f5f464545000000000000000000000000000000000000000000000000600082015250565b7f4d554c5449504c4945525f4f564552464c4f5700000000000000000000000000600082015250565b61111181610eea565b811461111c57600080fd5b50565b61112881610f1c565b811461113357600080fd5b5056fea2646970667358221220cdc19b48987d574a1e7176c8f8462c0f53ff81b1a99b83eb6946c62c9779ed8864736f6c63430008070033",
  "immutableReferences": {},
  "source": "// SPDX-License-Identifier: MIT\n\npragma solidity ^0.8.7;\n\nimport \"@openzeppelin/contracts/access/Ownable.sol\";\nimport \"./IRarity.sol\";\n\ncontract RarityCaller is Ownable {\n    // Rarity Contracts\n    IRarity rarity = IRarity(0xce761D788DF608BD21bdd59d6f4B54b2e27F25Bb);//  && \n    // IRarityAttributes rarity_attributes = IRarityAttributes(0xB5F5AF1087A8DA62A23b08C00C6ec9af21F397a1); //\t\n    // IRarityDungeon rarity_dungeon = IRarityDungeon(0x2A0F1cB17680161cF255348dDFDeE94ea8Ca196A);//\n    // IRarityGold rarity_gold = IRarityGold(0x2069B76Afe6b734Fb65D1d099E7ec64ee9CC76B2);//\n\n    // fees\n    mapping(address => uint) public fees;\n    uint public feeMultiplier = 30;\n\n    function rarityAdventureAll(uint[] calldata summoners) external payable {\n         uint startGasLeft = gasleft();\n         \n         for (uint i; i < summoners.length; i++) {\n            rarity.adventure(summoners[i]);\n        }\n\n        uint cost = (startGasLeft - gasleft()) * tx.gasprice * feeMultiplier / 100;\n\n        require(msg.value > cost, \"INSUFFICIENT_FEE\");\n        \n        fees[address(this)] += cost;\n\n        payable(msg.sender).transfer(msg.value - cost);\n    }\n\n    function rarityLevelupAll(uint[] calldata summoners) external payable {\n        uint startGasLeft = gasleft();\n        \n        for (uint i; i < summoners.length; i++) {\n            rarity.level_up(summoners[i]);\n        }\n\n        uint cost = (startGasLeft - gasleft()) * tx.gasprice * feeMultiplier / 100;\n\n        require(msg.value > cost, \"INSUFFICIENT_FEE\");\n        \n        fees[address(this)] += cost;\n\n        payable(msg.sender).transfer(msg.value - cost);\n    }\n\n    function withdrawFees(\n        address to\n    ) external onlyOwner {\n        require(fees[address(this)] >= 0, \"ZERO_FEE\");\n        uint amount = fees[address(this)];\n        fees[address(this)] = 0;\n        payable(to).transfer(amount);\n    }\n\n    function setFeeMultiplier(\n        uint multiplier\n    ) external onlyOwner {\n        require(multiplier <= 100, \"MULTIPLIER_OVERFLOW\");\n        feeMultiplier = multiplier;\n    }\n}\n\n\n",
  "sourcePath": "/home/xib/ws/rarity-project/rarity-caller/contracts/RarityCaller.sol",
  "compiler": {
    "name": "solc",
    "version": "0.8.7+commit.e28d00a7.Emscripten.clang"
  },
  "schemaVersion": "3.4.1",
  "updatedAt": "2021-10-08T12:02:35.740Z",
  "networkType": "ethereum",
  "devdoc": {
    "kind": "dev",
    "methods": {
      "owner()": {
        "details": "Returns the address of the current owner."
      },
      "renounceOwnership()": {
        "details": "Leaves the contract without owner. It will not be possible to call `onlyOwner` functions anymore. Can only be called by the current owner. NOTE: Renouncing ownership will leave the contract without an owner, thereby removing any functionality that is only available to the owner."
      },
      "transferOwnership(address)": {
        "details": "Transfers ownership of the contract to a new account (`newOwner`). Can only be called by the current owner."
      }
    },
    "version": 1
  },
  "userdoc": {
    "kind": "user",
    "methods": {},
    "version": 1
  }
}