{
  "contractName": "RarityCaller",
  "abi": [
    {
      "anonymous": false,
      "inputs": [
        {
          "indexed": true,
          "internalType": "address",
          "name": "previousOwner",
          "type": "address"
        },
        {
          "indexed": true,
          "internalType": "address",
          "name": "newOwner",
          "type": "address"
        }
      ],
      "name": "OwnershipTransferred",
      "type": "event"
    },
    {
      "inputs": [
        {
          "internalType": "address",
          "name": "",
          "type": "address"
        }
      ],
      "name": "fees",
      "outputs": [
        {
          "internalType": "uint256",
          "name": "",
          "type": "uint256"
        }
      ],
      "stateMutability": "view",
      "type": "function",
      "constant": true
    },
    {
      "inputs": [],
      "name": "owner",
      "outputs": [
        {
          "internalType": "address",
          "name": "",
          "type": "address"
        }
      ],
      "stateMutability": "view",
      "type": "function",
      "constant": true
    },
    {
      "inputs": [],
      "name": "renounceOwnership",
      "outputs": [],
      "stateMutability": "nonpayable",
      "type": "function"
    },
    {
      "inputs": [
        {
          "internalType": "address",
          "name": "newOwner",
          "type": "address"
        }
      ],
      "name": "transferOwnership",
      "outputs": [],
      "stateMutability": "nonpayable",
      "type": "function"
    },
    {
      "inputs": [
        {
          "internalType": "uint256[]",
          "name": "summoners",
          "type": "uint256[]"
        }
      ],
      "name": "rarityAdventureAll",
      "outputs": [],
      "stateMutability": "payable",
      "type": "function",
      "payable": true
    },
    {
      "inputs": [
        {
          "internalType": "uint256[]",
          "name": "summoners",
          "type": "uint256[]"
        }
      ],
      "name": "rarityLevelupAll",
      "outputs": [],
      "stateMutability": "payable",
      "type": "function",
      "payable": true
    },
    {
      "inputs": [
        {
          "internalType": "address",
          "name": "to",
          "type": "address"
        }
      ],
      "name": "withdrawFees",
      "outputs": [],
      "stateMutability": "nonpayable",
      "type": "function"
    }
  ],
  "bytecode": "0x608060405273ce761d788df608bd21bdd59d6f4b54b2e27f25bb600160006101000a81548173ffffffffffffffffffffffffffffffffffffffff021916908373ffffffffffffffffffffffffffffffffffffffff16021790555034801561006557600080fd5b5061008261007761008760201b60201c565b61008f60201b60201c565b610153565b600033905090565b60008060009054906101000a900473ffffffffffffffffffffffffffffffffffffffff169050816000806101000a81548173ffffffffffffffffffffffffffffffffffffffff021916908373ffffffffffffffffffffffffffffffffffffffff1602179055508173ffffffffffffffffffffffffffffffffffffffff168173ffffffffffffffffffffffffffffffffffffffff167f8be0079c531659141344cd1fd0a4f28419497f9722a3daafe3b4186f6b6457e060405160405180910390a35050565b610c75806101626000396000f3fe6080604052600436106100705760003560e01c8063853ec87e1161004e578063853ec87e146100d15780638da5cb5b146100ed578063f2fde38b14610118578063faaebd211461014157610070565b8063164e68de146100755780633a38aeb11461009e578063715018a6146100ba575b600080fd5b34801561008157600080fd5b5061009c6004803603810190610097919061088d565b61017e565b005b6100b860048036038101906100b391906108ba565b610351565b005b3480156100c657600080fd5b506100cf610473565b005b6100eb60048036038101906100e691906108ba565b6104fb565b005b3480156100f957600080fd5b5061010261061d565b60405161010f919061098e565b60405180910390f35b34801561012457600080fd5b5061013f600480360381019061013a919061088d565b610646565b005b34801561014d57600080fd5b506101686004803603810190610163919061088d565b61073e565b6040516101759190610a09565b60405180910390f35b610186610756565b73ffffffffffffffffffffffffffffffffffffffff166101a461061d565b73ffffffffffffffffffffffffffffffffffffffff16146101fa576040517f08c379a00000000000000000000000000000000000000000000000000000000081526004016101f1906109c9565b60405180910390fd5b6000600260003073ffffffffffffffffffffffffffffffffffffffff1673ffffffffffffffffffffffffffffffffffffffff16815260200190815260200160002054101561027d576040517f08c379a0000000000000000000000000000000000000000000000000000000008152600401610274906109e9565b60405180910390fd5b6000600260003073ffffffffffffffffffffffffffffffffffffffff1673ffffffffffffffffffffffffffffffffffffffff1681526020019081526020016000205490506000600260003073ffffffffffffffffffffffffffffffffffffffff1673ffffffffffffffffffffffffffffffffffffffff168152602001908152602001600020819055508173ffffffffffffffffffffffffffffffffffffffff166108fc829081150290604051600060405180830381858888f1935050505015801561034c573d6000803e3d6000fd5b505050565b60005b8282905081101561041857600160009054906101000a900473ffffffffffffffffffffffffffffffffffffffff1673ffffffffffffffffffffffffffffffffffffffff1663b00b52f18484848181106103b0576103af610b3f565b5b905060200201356040518263ffffffff1660e01b81526004016103d39190610a09565b600060405180830381600087803b1580156103ed57600080fd5b505af1158015610401573d6000803e3d6000fd5b50505050808061041090610ac7565b915050610354565b5034600260003073ffffffffffffffffffffffffffffffffffffffff1673ffffffffffffffffffffffffffffffffffffffff16815260200190815260200160002060008282546104689190610a35565b925050819055505050565b61047b610756565b73ffffffffffffffffffffffffffffffffffffffff1661049961061d565b73ffffffffffffffffffffffffffffffffffffffff16146104ef576040517f08c379a00000000000000000000000000000000000000000000000000000000081526004016104e6906109c9565b60405180910390fd5b6104f9600061075e565b565b60005b828290508110156105c257600160009054906101000a900473ffffffffffffffffffffffffffffffffffffffff1673ffffffffffffffffffffffffffffffffffffffff16639024944884848481811061055a57610559610b3f565b5b905060200201356040518263ffffffff1660e01b815260040161057d9190610a09565b600060405180830381600087803b15801561059757600080fd5b505af11580156105ab573d6000803e3d6000fd5b5050505080806105ba90610ac7565b9150506104fe565b5034600260003073ffffffffffffffffffffffffffffffffffffffff1673ffffffffffffffffffffffffffffffffffffffff16815260200190815260200160002060008282546106129190610a35565b925050819055505050565b60008060009054906101000a900473ffffffffffffffffffffffffffffffffffffffff16905090565b61064e610756565b73ffffffffffffffffffffffffffffffffffffffff1661066c61061d565b73ffffffffffffffffffffffffffffffffffffffff16146106c2576040517f08c379a00000000000000000000000000000000000000000000000000000000081526004016106b9906109c9565b60405180910390fd5b600073ffffffffffffffffffffffffffffffffffffffff168173ffffffffffffffffffffffffffffffffffffffff161415610732576040517f08c379a0000000000000000000000000000000000000000000000000000000008152600401610729906109a9565b60405180910390fd5b61073b8161075e565b50565b60026020528060005260406000206000915090505481565b600033905090565b60008060009054906101000a900473ffffffffffffffffffffffffffffffffffffffff169050816000806101000a81548173ffffffffffffffffffffffffffffffffffffffff021916908373ffffffffffffffffffffffffffffffffffffffff1602179055508173ffffffffffffffffffffffffffffffffffffffff168173ffffffffffffffffffffffffffffffffffffffff167f8be0079c531659141344cd1fd0a4f28419497f9722a3daafe3b4186f6b6457e060405160405180910390a35050565b60008135905061083181610c28565b92915050565b60008083601f84011261084d5761084c610b73565b5b8235905067ffffffffffffffff81111561086a57610869610b6e565b5b60208301915083602082028301111561088657610885610b78565b5b9250929050565b6000602082840312156108a3576108a2610b82565b5b60006108b184828501610822565b91505092915050565b600080602083850312156108d1576108d0610b82565b5b600083013567ffffffffffffffff8111156108ef576108ee610b7d565b5b6108fb85828601610837565b92509250509250929050565b61091081610a8b565b82525050565b6000610923602683610a24565b915061092e82610b87565b604082019050919050565b6000610946602083610a24565b915061095182610bd6565b602082019050919050565b6000610969600883610a24565b915061097482610bff565b602082019050919050565b61098881610abd565b82525050565b60006020820190506109a36000830184610907565b92915050565b600060208201905081810360008301526109c281610916565b9050919050565b600060208201905081810360008301526109e281610939565b9050919050565b60006020820190508181036000830152610a028161095c565b9050919050565b6000602082019050610a1e600083018461097f565b92915050565b600082825260208201905092915050565b6000610a4082610abd565b9150610a4b83610abd565b9250827fffffffffffffffffffffffffffffffffffffffffffffffffffffffffffffffff03821115610a8057610a7f610b10565b5b828201905092915050565b6000610a9682610a9d565b9050919050565b600073ffffffffffffffffffffffffffffffffffffffff82169050919050565b6000819050919050565b6000610ad282610abd565b91507fffffffffffffffffffffffffffffffffffffffffffffffffffffffffffffffff821415610b0557610b04610b10565b5b600182019050919050565b7f4e487b7100000000000000000000000000000000000000000000000000000000600052601160045260246000fd5b7f4e487b7100000000000000000000000000000000000000000000000000000000600052603260045260246000fd5b600080fd5b600080fd5b600080fd5b600080fd5b600080fd5b7f4f776e61626c653a206e6577206f776e657220697320746865207a65726f206160008201527f6464726573730000000000000000000000000000000000000000000000000000602082015250565b7f4f776e61626c653a2063616c6c6572206973206e6f7420746865206f776e6572600082015250565b7f5a45524f5f464545000000000000000000000000000000000000000000000000600082015250565b610c3181610a8b565b8114610c3c57600080fd5b5056fea2646970667358221220e7757f88855bdef252327cc38f735f467c9a61f265e1170f0d41944348505e1864736f6c63430008070033",
  "immutableReferences": {},
  "source": "// SPDX-License-Identifier: MIT\n\npragma solidity ^0.8.7;\n\nimport \"@openzeppelin/contracts/access/Ownable.sol\";\nimport \"./IRarity.sol\";\n\ncontract RarityCaller is Ownable {\n    // Rarity Contracts\n    IRarity rarity = IRarity(0xce761D788DF608BD21bdd59d6f4B54b2e27F25Bb);//  && \n    // IRarityAttributes rarity_attributes = IRarityAttributes(0xB5F5AF1087A8DA62A23b08C00C6ec9af21F397a1); //\t\n    // IRarityDungeon rarity_dungeon = IRarityDungeon(0x2A0F1cB17680161cF255348dDFDeE94ea8Ca196A);//\n    // IRarityGold rarity_gold = IRarityGold(0x2069B76Afe6b734Fb65D1d099E7ec64ee9CC76B2);//\n\n    // fees\n    mapping(address => uint) public fees;\n\n    function rarityAdventureAll(uint[] calldata summoners) external payable {\n         for (uint i; i < summoners.length; i++) {\n            rarity.adventure(summoners[i]);\n        }\n        \n        fees[address(this)] += msg.value;\n    }\n\n    function rarityLevelupAll(uint[] calldata summoners) external payable {\n       for (uint i; i < summoners.length; i++) {\n            rarity.level_up(summoners[i]);\n        }\n        \n        fees[address(this)] += msg.value;\n    }\n\n    function withdrawFees(\n        address to\n    ) external onlyOwner {\n        require(fees[address(this)] >= 0, \"ZERO_FEE\");\n        uint amount = fees[address(this)];\n        fees[address(this)] = 0;\n        payable(to).transfer(amount);\n    }\n\n}\n\n\n",
  "sourcePath": "/home/xib/ws/rarity-project/rarity-caller/contracts/RarityCaller.sol",
  "compiler": {
    "name": "solc",
    "version": "0.8.7+commit.e28d00a7.Emscripten.clang"
  },
  "schemaVersion": "3.4.1",
  "updatedAt": "2021-10-09T02:47:30.966Z",
  "networkType": "ethereum",
  "devdoc": {
    "kind": "dev",
    "methods": {
      "owner()": {
        "details": "Returns the address of the current owner."
      },
      "renounceOwnership()": {
        "details": "Leaves the contract without owner. It will not be possible to call `onlyOwner` functions anymore. Can only be called by the current owner. NOTE: Renouncing ownership will leave the contract without an owner, thereby removing any functionality that is only available to the owner."
      },
      "transferOwnership(address)": {
        "details": "Transfers ownership of the contract to a new account (`newOwner`). Can only be called by the current owner."
      }
    },
    "version": 1
  },
  "userdoc": {
    "kind": "user",
    "methods": {},
    "version": 1
  }
}